:1000000012C02CC02BC02AC029C028C027C026C0BF
:1000100025C04DC023C022C021C020C01FC01EC0AB
:100020001DC01CC01BC011241FBECFE5D4E0DEBF25
:10003000CDBF10E0A0E6B0E0ECEEF7E002C0059026
:100040000D92AA36B107D9F720E0AAE6B0E001C0C8
:100050001D92AC3FB207E1F751D2C6C3D1CF0F9387
:100060001F93CF93DF93EC016817790724F08B017E
:10007000081B190B04C08C01061B170BEB010115A3
:10008000110531F048D3B801D5D28C0F9D1F01C0A6
:10009000CE01DF91CF911F910F910895C2988FB932
:1000A000779BFECF6FB9779BFECFC29A08951F92C0
:1000B0000F920FB60F9211241F932F933F934F93DC
:1000C0005F936F937F938F939F93AF93BF93CF93E0
:1000D000DF93EF93FF9380916A008F5F823018F473
:1000E00080936A000CC010926A00E091FB00F0E07F
:1000F00090917100ED54FF4F808189278083C3EB7D
:10010000D0E011E06991812FC9DF1F5F1930D1F76D
:1001100080916B008F5F80936B00FF91EF91DF9177
:10012000CF91BF91AF919F918F917F916F915F918F
:100130004F913F912F911F910F900FBE0F901F90E5
:100140001895CF93DF93B799FECFC19A10926F00A5
:1001500010926E0010926D0010926C0083E08093FC
:10016000680088E080936700EBEBF0E0A3E7B0E085
:1001700011921D9220E0EB3FF207D1F767E070E0AB
:1001800080E090E06CDF8093FB00C1E0D0E067E0AE
:1001900070E080E090E063DF9E0102C0220F331F19
:1001A0008A95E2F720937100909171008091670029
:1001B000981769F381E080937000E091FB00F0E014
:1001C00090917100ED54FF4F8081892B8083DF91E6
:1001D000CF910895E3EBF0E0119280E0EB3BF8075C
:1001E000D9F7089586E0E3EBF0E090819095919344
:1001F00020E0EB3BF207C9F73FEF90E722E03150F8
:1002000090402040E1F700C00000815061F7E2CF4C
:1002100020916C0030916D00F901E554FF4FE081B1
:10022000F0E0ED54FF4FD901AD58BF4F9C91909530
:10023000808189238083E0916800F0E090916700DD
:10024000ED54FF4F8081892B808380916E009091C7
:100250006F00019690936F0080936E002F5F3F4F69
:1002600030936D0020936C008034910520F0109243
:100270006F0010926E002034310520F010926D0056
:1002800010926C0080916E0090916F002091680038
:10029000FC01E554FF4F208320916700FC01ED58DD
:1002A000FF4F2083089580916600859B03C08230B4
:1002B000F9F402C08430E1F020916B0030E08091CD
:1002C0006400909165002817390778F080916800E4
:1002D000873030F4809168008F5F8093680002C09F
:1002E0001092680095DF10926B0082E080936600A8
:1002F000089580916600869B03C08430F1F402C0AB
:100300008230D9F020916B0030E0809164009091B0
:1003100065002817390770F080916800882321F064
:1003200080916800815001C087E08093680070DF91
:1003300010926B0084E080936600089580916600BF
:10034000879B03C08130F1F402C08330D9F0209143
:100350006B0030E0809164009091650028173907A8
:1003600070F08091670087FD04C080916700880F5E
:1003700001C081E0809367004BDF10926B0081E049
:1003800080936600089580916600B09B03C083301F
:10039000F1F402C08130D9F020916B0030E08091FF
:1003A0006400909165002817390770F0809167000C
:1003B000823020F080916700869501C080E88093AC
:1003C000670026DF10926B0083E08093660008953B
:1003D000CF93DF9380916E0090916F0020916C001D
:1003E00030916D0028173907A8F5209372002091ED
:1003F0007200DC01A554BF4FEC01CD58DF4F2091B6
:10040000720030E02817390708F041C0E09172000F
:10041000F0E0E554FF4F3C912081321315C0E0918C
:100420007200F0E0ED58FF4F3881208132130CC08C
:100430002FEF89E698E1215080409040E1F700C01D
:100440000000D0DE81E057C0209172002F5F209322
:100450007200D5CF82179307D0F410927200DC019E
:10046000A554BF4FEC01CD58DF4F4091720050E0D2
:100470004817590770F020937200DC01A554BF4F54
:10048000EC01CD58DF4F209172002034D8F080E08D
:1004900032C0E0917200F0E0E554FF4F5C91408182
:1004A00054130AC0E0917200F0E0ED58FF4F5881FC
:1004B0004081541709F4BCCF409172004F5F4093C4
:1004C0007200D3CFE0917200F0E0E554FF4F3C9111
:1004D000208132130AC0E0917200F0E0ED58FF4F26
:1004E00038812081321709F4A3CF209172002F5F49
:1004F00020937200C8CFDF91CF910895B99A889A5E
:10050000959A969A979AC09AC79ABA9AC29A87B3B6
:10051000886287BB6C9A709A6E9A83B7856083BF36
:1005200089B7816089BF61E08CE0B8DD60E08FE071
:10053000B5DD60E089E0B2DD60E08AE0AFDD67E074
:100540008BE0ACDD47DE1092B3001092B400109245
:10055000B5001092B6001092B7001092B800109239
:10056000B9001092BA0080916E0090916F002091B6
:100570006800FC01E554FF4F208320916700FC01D7
:10058000ED58FF4F2083E091680080916700F0E014
:10059000ED54FF4F80837894C1E0D0E011E083DE1A
:1005A000A8DECCDEF0DE14DF882311F0CADDF7CF41
:1005B000909168008091FB0030916700209171005C
:1005C00032130DC098130BC080916C0090916D0098
:1005D000019790936D0080936C0010927000809151
:1005E00070008111DCCF67E070E080E090E037DDE3
:1005F0008093FB0067E070E080E090E030DD9E01DA
:1006000002C0220F331F8A95E2F720937100909168
:10061000710080916700981769F310937000E09162
:10062000FB00F0E090917100ED54FF4F8081892B29
:100630008083B5CF97FB072E16F4009406D077FD84
:1006400008D00BD007FC05D03EF4909581959F4FC4
:100650000895709561957F4F0895AA1BBB1B51E1CA
:1006600007C0AA1FBB1FA617B70710F0A61BB70B22
:10067000881F991F5A95A9F780959095BC01CD01C7
:1006800008958F929F92AF92BF92CF92DF92EF9296
:10069000FF92CF93DF93EC01688179818A819B81FE
:1006A000611571058105910521F464E279ED8BE511
:1006B00097E02DE133EF41E050E03CD049015A0191
:1006C0009B01AC01A7EAB1E451D06B017C01ACEE17
:1006D000B4EFA501940156D0C60ED71EE81EF91E30
:1006E000F7FE06C081E0C81AD108E10880E8F80AE0
:1006F000C882D982EA82FB82C6019F77DF91CF91BF
:10070000FF90EF90DF90CF90BF90AF909F908F9031
:100710000895B7DF089580E690E0B3DF0895A0E084
:10072000B0E08093600090936100A0936200B0936A
:1007300063000895052E97FB16F400940FD057FD23
:1007400005D024D007FC02D046F408C0509540954F
:10075000309521953F4F4F4F5F4F0895909580956D
:10076000709561957F4F8F4F9F4F089531D0A59F12
:10077000900DB49F900DA49F800D911D112408959C
:10078000B7FFF4CFF3DF821B930B0895A1E21A2E7B
:10079000AA1BBB1BFD010DC0AA1FBB1FEE1FFF1F25
:1007A000A217B307E407F50720F0A21BB30BE40B75
:1007B000F50B661F771F881F991F1A9469F76095BC
:1007C0007095809590959B01AC01BD01CF01089576
:1007D000A29FB001B39FC001A39F01D0B29F700D33
:0C07E000811D1124911D0895F894FFCF95
:0A07EC00010000000A0003080300EA
:00000001FF
