S0130000777973776965746C61637A2E737265634B
S113000012C02CC02BC02AC029C028C027C026C0BB
S113001071C024C023C02BC021C020C01FC01EC07B
S11300201DC01CC01BC011241FBECFE5D4E0DEBF21
S1130030CDBF10E0A0E6B0E0ECE3F4E002C0059030
S11300400D92A636B107D9F720E0A6E6B0E001C0CC
S11300501D92AC36B207E1F7CDD0EEC1D1CF8EB54B
S113006081608EBD08958EB58E7F8EBD08951F92DA
S11300700F920FB60F9211242F933F934F935F93D8
S11300806F937F938F939F93AF93BF93EF93FF935C
S11300904CB14CB9609168007091690080916A001C
S11300A090916B005ED18091680090916900A0915D
S11300B06A00B0916B000196A11DB11D8093680088
S11300C090936900A0936A00B0936B0082B3805848
S11300D082BBFF91EF91BF91AF919F918F917F91DF
S11300E06F915F914F913F912F910F900FBE0F90A1
S11300F01F9018951F920F920FB60F9211242F93F1
S11301003F934F935F936F937F938F939F93AF939B
S1130110BF93EF93FF93929A80916600909167004A
S1130120049708F44CC0979A1092670010926600E6
S1130130609168007091690080916A0090916B00F1
S113014021E030E040E050E046D180916800909199
S11301506900A0916A00B0916B000196A11DB11DC8
S11301608093680090936900A0936A00B0936B0039
S11301708091640090E09BBD8ABD409168005091DD
S1130180690060916A0070916B00809160009091A9
S11301906100A0916200B091630084179507A607DF
S11301A0B70760F489B78B7F89BF5DDF1092680061
S11301B01092690010926A0010926B0097988091D7
S11301C066009091670001969093670080936600A3
S11301D09298FF91EF91BF91AF919F918F917F91F1
S11301E06F915F914F913F912F910F900FBE0F90A0
S11301F01F901895B89AC09A8F9A979A8A9A929A49
S11302007BD089D0A7D05BD05D9BFECF809164006A
S11302108CB9789454982FEF8FEF9CE22150804052
S11302209040E1F700C000005D9BFECF82E01BD050
S11302308CB95D9BFECF83E016D08CB989B78460FE
S113024089BF0DDF2FEF8FEF90EE2150804090405B
S1130250E1F700C00000F2CFA59AAD9A0895AD9AD7
S11302600895AD980895CF93DF931F92CDB7DEB76D
S11302708983F7DF8981880F80688FB9779BFECFE8
S11302801FB8779BFECFEBDF8FB10F90DF91CF913B
S11302900895CF93DF9300D0CDB7DEB76A83898307
S11302A0E0DF8981880F8FB96A81779BFECF6FB9B0
S11302B0779BFECF0F900F90DF91CF91D0CFCCDF03
S11302C06DE88AE2E6DF6EE38BE2E3DF6EE18CE267
S11302D0E0DF60E08DE2DDDF60E485E1DADF6DE33D
S11302E081E1D7DF84E1BFDF982F937021F4682F79
S11302F0636084E1CECF0895B99ABA9AC29ABB9A40
S1130300BD9ABC986C9A8DB18C608DB9709A6E9AB6
S11303108EB18FB108958AB188618AB9599A82E001
S113032080BD8FEF89B980B5866880BD579A0895DE
S1130330C09886E08FB9779BFECFC09A0895C09885
S113034085E08FB9779BFECF1FB8779BFECF8FB127
S1130350C09A08958D9AB89ABF9AC09A959AC79AE6
S113036008950F931F93CF93DF9300D000D01F9273
S1130370CDB7DEB74D8369837A838B839C83D8DFC3
S1130380C09822E02FB99C818B817A8169814D814B
S1130390779BFECF8C01222733270FB9779BFECFA3
S11303A0072F182F292F33270FB9779BFECF6FB94B
S11303B0779BFECF4FB9779BFECFC09AC0DF80FDFD
S11303C0FDCF0F900F900F900F900F90DF91CF9172
S11303D01F910F910895CF92DF92EF92FF92C098F0
S11303E0E3E0EFB9779BFECF6C01EE24FF24CFB896
S11303F0779BFECFC72ED82EE92EFF24CFB8779B4C
S1130400FECF6FB9779BFECF80E090E0DC018217CE
S11304109307A407B50754F41FB8779BFECF6FB1B9
S1130420609364000196A11DB11DF1CFC09AFF90A5
S10F0430EF90DF90CF900895F894FFCF78
S109043C7C4B00007F0070
S9030000FC
