:10000000B7C0C6C0C5C0C4C0C3C0C2C0C1C0C0C0E4
:10001000BFC0BEC0BDC0BDC0BBC0BAC0B9C0B8C003
:10002000B7C0B6C0B5C041542B43574A41505F4397
:1000300055523D22427562615F776966695F47226A
:100040002C224D6F69476F73636945233230313716
:1000500022000D0A4F4B0D0A3E20002B4950442C24
:1000600034383A000D0A4F4B0D0A0041542B4349D6
:100070005053454E443D34380041542B434950437E
:100080004C4F53450041542B434950535441525413
:100090003D22554450222C226E7470312E74702EE5
:1000A000706C222C3132330020485454502F312EA2
:1000B000310D0A486F73743A203139322E31363897
:1000C0002E312E35310D0A0D0A0047455420687433
:1000D00074703A2F2F3139322E3136382E312E3579
:1000E000312F4A55522F7068702F6E6F7470616493
:1000F0005F646F5F54435049502E7068703F646175
:100100006E613D0041542B43495053454E443D00E0
:1001100041542B43495053544152543D225443506F
:10012000222C223139322E3136382E312E353122E1
:100130002C38300D0A0062797465730D0A007A61FB
:10014000706973616E6F5F64616E6500434F4E4E00
:100150004543540D0A0D0A4F4B0D0A00414C5245C0
:1001600041445920434F4E4E45435445440D0A00E7
:1001700011241FBECFE5D4E0DEBFCDBF20E0A0E656
:10018000B0E001C01D92A33FB207E1F7E2D4A3C5DE
:1001900037CF1F920F920FB60F9211248F939F9318
:1001A000EF93FF93E0916200F09163008CB1E3570D
:1001B000FF4F80838091620090916300019690933D
:1001C000630080936200FF91EF919F918F910F9058
:1001D0000FBE0F901F9018956AE070E0F5D48091E3
:1001E000620090916300892BA1F4161617068CF417
:1001F0008FEF97E40197F1F700C00000615071099B
:100200008091620090916300892B19F4611571054A
:1002100079F79FEF2FE38BE0915020408040E1F78A
:1002200000C0000008958EE391E0F5D46091620073
:10023000709163009C014EE351E08DE890E0F4D4AE
:1002400021E0892B09F420E0822F08958CE491E0CD
:10025000E2D460916200709163009C014CE451E033
:100260008DE890E0E1D421E0892B09F420E0822F91
:10027000089586E391E0CFD46091620070916300AD
:100280009C0146E351E08DE890E0CED421E0892B3B
:1002900009F420E0822F089582E590E0BCD46091BB
:1002A0006200709163009C0142E550E08DE890E0AF
:1002B000BBD421E0892B09F420E0822F089510920D
:1002C000630010926200109261001092600086E25A
:1002D00090E0A1D4AC0110C05D9BFECFEA5DFF4F62
:1002E00094919CB920916000309161002F5F3F4F45
:1002F0003093610020936000E0916000F091610014
:10030000E417F50748F35D9BFECF8DE08CB95D9B4C
:10031000FECF8AE08CB908951092630010926200BB
:1003200010926100109260008BE690E074D4AC01F2
:1003300010C05D9BFECFE559FF4F94919CB9209171
:100340006000309161002F5F3F4F30936100209338
:100350006000E0916000F0916100E417F50748F358
:100360005D9BFECF8DE08CB95D9BFECF8AE08CB9A2
:1003700008955F926F927F928F929F92AF92BF92F9
:10038000CF92DF92EF92FF920F931F93CF93DF9361
:100390001092F2001092F100109261001092600031
:1003A000AEE7B0E009C0FC01E258FF4F10820196B1
:1003B0009093610080936000FD0101900020E9F7B7
:1003C0003197EE57F04080916000909161008E1758
:1003D0009F0748F31092610010926000AEE7B0E012
:1003E00009C0FC01EC58FF4F108201969093610008
:1003F00080936000FD0101900020E9F73197EE57EE
:10040000F04080916000909161008E179F0748F343
:10041000109271001092700080E191E0FCD3EC0129
:1004200010926300109262001092610010926000BE
:1004300010C05D9BFECFE05FFE4F94919CB9209170
:100440006000309161002F5F3F4F30936100209337
:100450006000E0916000F0916100EC17FD0748F347
:1004600080ED97E0B9DE2FEF8FE790E721508040D5
:100470009040E1F700C00000E9DE882309F463C181
:10048000109271001092700084E091E0C4D38C014E
:100490000F2EFAECAF2EF0E0BF2EF02D0F2EF8EA63
:1004A000CF2EF0E0DF2EF02DC4E7D0E00F2EFDE0E0
:1004B0005F2EF02D10926300109262001092610086
:1004C000109260000FC05D9BFECFEC5FFE4F8491E9
:1004D0008CB98091600090916100019690936100C9
:1004E00080936000E0916000F0916100E017F107F7
:1004F00050F360916C0070916D0080916E0090914E
:100500006F002AE04EE750E0B5D36A2C7B2CC50182
:1005100082D37C019C2C8D2CC6017DD3EEE7F0E0CC
:1005200001900020E9F73197EE57F0408E0D9F1DA6
:10053000BC016E0F7F1F7093F2006093F100072ED5
:10054000000C880B990B2AE0AE0194D31092630043
:1005500010926200109261001092600010C05D9BCA
:10056000FECFFC01EC58FF4F80818CB98091600078
:100570009091610001969093610080936000FE016C
:1005800001900020E9F73197E457F0408091600036
:10059000909161008E179F0710F35D9BFECF5CB8B2
:1005A0005D9BFECF8AE08CB980ED97E015DE74DEAE
:1005B000882309F4B9C01092710010927000862D42
:1005C000972D29D38C01CEE7D0E0109263001092D2
:1005D000620010926100109260000FC05D9BFECF20
:1005E000E653FF4F84918CB9809160009091610037
:1005F00001969093610080936000E0916000F0911B
:100600006100E017F10750F310926300109262004E
:10061000109261001092600010C05D9BFECFFC0143
:10062000E258FF4F80818CB9809160009091610009
:1006300001969093610080936000FE01019000207C
:10064000E9F73197EE57F04080916000909161009A
:100650008E179F0710F310926300109262001092A1
:10066000610010926000892D982DD5D2AC0110C088
:100670005D9BFECFE855FF4F94919CB9209160009F
:10068000309161002F5F3F4F3093610020936000F5
:10069000E0916000F0916100E417F50748F380ED08
:1006A00097E09ADDE6DD882381F1109271001092C7
:1006B00070002FEF8FEF9CE2215080409040E1F7D7
:1006C00000C00000B0DD882391F0109271001092FC
:1006D00070005D9BFECF8BE28CB95D9BFECF8BE201
:1006E0008CB95D9BFECF8BE28CB981E03AC0209142
:1006F0007000309171002F5F3F4F30937100209355
:10070000700023303105ACF22CC020917000309184
:1007100071002F5F3F4F30937100209370002330A2
:1007200031050CF452CF1DC0209170003091710042
:100730002F5F3F4F309371002093700023303105BD
:100740000CF4B8CE0EC020917000309171002F5F74
:100750003F4F3093710020937000233031050CF42B
:100760005FCEDF91CF911F910F91FF90EF90DF90BF
:10077000CF90BF90AF909F908F907F906F905F9041
:10078000089596982FEF8FE392E02150804090409B
:10079000E1F700C00000969A2FEF8FEF93EB215006
:1007A00080409040E1F700C000000895CF93DF93B0
:1007B000109268001092690010926A0010926B000B
:1007C000E0917200F0917300EF01899190E0A0E058
:1007D000B0E0782F66275527442740936800509350
:1007E000690060936A0070936B00D0937300C093AC
:1007F0007200818190E0A0E0B0E0DC0199278827B9
:10080000840F951FA61FB71F8093680090936900FF
:10081000A0936A00B0936B00428150E060E070E00A
:10082000762F652F542F4427840F951FA61FB71FBF
:100830008093680090936900A0936A00B0936B0066
:100840009F012D5F3F4F30937300209372002381EF
:10085000820F911DA11DB11D8093680090936900C6
:10086000A0936A00B0936B0080589E47AA4AB34891
:100870008093640090936500A0936600B093670036
:10088000DF91CF91089510926300109262005D9BFA
:10089000FECF8BE18CB910926100109260005D9BDD
:1008A000FECF1CB8809160009091610001969093FA
:1008B0006100809360008F9790F308951092630019
:1008C00010926200109261001092600085E890E042
:1008D000A2D1AC0110C05D9BFECFEB57FF4F9491AE
:1008E0009CB920916000309161002F5F3F4F3093A1
:1008F000610020936000E0916000F0916100E417D6
:10090000F50748F35D9BFECF8DE08CB95D9BFECF74
:100910008AE08CB9089510926300109262001092E0
:1009200061001092600089E790E075D1AC0110C0C1
:100930005D9BFECFE758FF4F94919CB920916000DA
:10094000309161002F5F3F4F309361002093600032
:10095000E0916000F0916100E417F50748F35D9BBA
:10096000FECF8DE08CB95D9BFECF8AE08CB90895F7
:100970002FEF8FEF9CE2215080409040E1F700C0C4
:100980000000C9DF10926C0010926D0010926E0092
:1009900010926F0010926400109265001092660031
:1009A000109267002FEF8FEF90EE21508040904023
:1009B000E1F700C000000895CF93DF937FDF88EE5A
:1009C00093E00ADC84E690E026D1609162007091A9
:1009D00063009C0144E650E08DE890E025D1892B2E
:1009E00009F0A2C08CE591E016D16091620070918F
:1009F00063009C014CE551E08DE890E015D1892B16
:100A000009F488C089DC80ED97E0E6DBC2E5D0E040
:100A1000CE0101D160916200709163009C01AE0132
:100A20008DE890E001D1892B09F479C02CDF88EBA7
:100A30009BE0D2DB8BE590E0EED06091620070919C
:100A400063009C014BE550E08DE890E0EDD0909381
:100A50007300809372000097C1F1C0969093730069
:100A600080937200A3DE2FEF8FE39BE02150804044
:100A70009040E1F700C000005D9BFECF8BE28CB997
:100A80005D9BFECF8BE28CB95D9BFECF8BE28CB978
:100A90002FEF8FE796E1215080409040E1F700C0B2
:100AA000000039DF88EE93E097DB82B3805882BB89
:100AB0001092730010927200609164007091650052
:100AC000809166009091670036C05D9BFECF8BE2FF
:100AD0008CB95D9BFECF8BE28CB95D9BFECF8BE228
:100AE0008CB92FEF8FE796E1215080409040E1F7DD
:100AF00000C0000010DF88EE93E06EDB82B3805808
:100B000082BB109273001092720062E470E080E089
:100B100090E011C062E470E080E090E00CC062E41C
:100B200070E080E090E007C0F7DB80ED97E054DBF9
:100B3000C2E5D0E06DCFDF91CF910895599A87E05B
:100B400089B98AB188618AB980B5866880BD579AAB
:100B50000895899A8F9A8B9A8D9AB99A8E9A939AB8
:100B6000C19A979AEBDF0DDEAADB2FEF8FEF93EBA5
:100B7000215080409040E1F700C000007894C2E02E
:100B80001BDF60936C0070936D0080936E009093F8
:100B90006F002FEF8FE796E1215080409040E1F702
:100BA00000C0000088B38C2788BBE3DB811101C043
:100BB000E8DDDEDE2FEF8FEF90EE21508040904099
:100BC000E1F700C00000DCCF97FB072E16F400947D
:100BD00006D077FD08D00BD007FC05D03EF49095E9
:100BE00081959F4F0895709561957F4F0895AA1B39
:100BF000BB1B51E107C0AA1FBB1FA617B70710F008
:100C0000A61BB70B881F991F5A95A9F78095909539
:100C1000BC01CD010895FC0105900020E9F7809505
:100C200090958E0F9F1F08952115310511F11F9387
:100C30000F93240F351F680F791FFA011591AF012B
:100C4000DC01A617B70780F40D910117D1F7CD018C
:100C5000FA01E217F30750F4A617B70728F40D912D
:100C600005900015B1F3ECCF81E090E001970F9172
:100C70001F910895BB27FA01A62F62177105810500
:100C80009105330B30FB66F0AA27660F771F881F8C
:100C9000991FAA1FA21710F0A21B63953850A9F73D
:100CA000A05DAA3308F0A95DA19336F7B111B19305
:100CB0001082CA0100C0DC01FC01672F719177230B
:100CC000E1F7329704C07C916D9370836291AE1707
:0A0CD000BF07C8F30895F894FFCFA2
:00000001FF
