S00D000050494430352E73726563D5
S113000012C02CC02BC02AC029C059C027C026C08A
S113001026C024C023C022C021C020C01FC01EC0CF
S11300201DC01CC01BC011241FBECFE5D4E0DEBF21
S1130030CDBF10E0A0E6B0E0E2E5F5E002C0059037
S11300400D92AA36B107D9F720E0AAE6B0E001C0C4
S11300501D92A23CB207E1F79DD179C2D1CF1F9284
S11300600F920FB60F9211248F939F93AF93BF9368
S1130070EF93FF93E2E9F0E080819181019691830F
S1130080808380916C0090916D00A0916E00B0917E
S11300906F000196A11DB11D80936C0090936D00BB
S11300A0A0936E00B0936F00FF91EF91BF91AF9159
S11300B09F918F910F900FBE0F901F9018951F92D4
S11300C00F920FB60F9211242F923F924F925F928C
S11300D06F927F928F929F92AF92BF92CF92DF9254
S11300E0EF92FF920F931F932F933F934F935F933E
S11300F06F937F938F939F93AF93BF93EF93FF93EC
S1130100CF93DF9300D000D0CDB7DEB786B597B5D7
S1130110909391008093900080919200909193002D
S1130120209190003091910040918E0050918F0069
S1130130A0E0B0E06AE0880F991FAA1FBB1F6A9570
S1130140D1F7841B950BA109B109820F931FA11D3F
S1130150B11D8093940090939500A0939600B09362
S113016097008091940090919500A0919600B09191
S1130170970040916600509167006091680070910B
S11301806900841B950BA60BB70B80939C0090937E
S11301909D00A0939E00B0939F0080919800909141
S11301A09900A0919A00B0919B0040919C005091BD
S11301B09D0060919E0070919F00840F951FA61F63
S11301C0B71F8093980090939900A0939A00B093DE
S11301D09B00A0916400B091650020919C00309137
S11301E09D0040919E0050919F00009162001091EB
S11301F06300609198007091990080919A009091A9
S11302009B0069837A838B839C8320906000309069
S1130210610080909C0090909D00A0909E00B09002
S11302209F004090A4005090A5006090A60070909C
S1130230A70071D16B017C01D80129813A814B81DE
S11302405C8169D1C60ED71EE81EF91E8418950874
S1130250A608B708D101A50194015DD1C60ED71E29
S1130260E81EF91EC701B60120E533EC40E050E07A
S113027036D12093A0003093A1004093A200509364
S1130280A30080919C0090919D00A0919E00B0914C
S11302909F008093A4009093A500A093A600B09320
S11302A0A7008091A0009091A100A091A200B0911C
S11302B0A300B7FF08C01092A0001092A1001092F2
S11302C0A2001092A3008091A0009091A100A0919F
S11302D0A200B091A30081159440A105B10564F07A
S11302E08FEF93E0A0E0B0E08093A0009093A10092
S11302F0A093A200B093A3008091A0009091A100CC
S1130300A091A200B091A3009BBD8ABD80916A0018
S113031090916B0090938F0080938E008091920057
S11303209091930090939300809392001092930085
S11303301092920010926B0010926A001DBC1CBCBB
S113034088B7826088BF0F900F900F900F90DF9155
S1130350CF91FF91EF91BF91AF919F918F917F9139
S11303606F915F914F913F912F911F910F91FF904A
S1130370EF90DF90CF90BF90AF909F908F907F9041
S11303806F905F904F903F902F900F900FBE0F9003
S11303901F901895B99A8FB580688FBD8FB583600B
S11303A08FBD8EB588608EBDC09A8EB580688EBDB7
S11303B08EB580648EBD89B7806289BF89B7846039
S11303C089BF8F9A8E9A889A959A2FEF89E698E139
S11303D0215080409040E1F700C0000054D08EB519
S11303E081608EBD8FEF93E09BBD8ABD2FE788E3CC
S11303F091E0215080409040E1F700C000007894E3
S1130400CFEFD3E01AE174EFC72EDD24D394E12CAF
S1130410F12C8091AC009091AD008D32914010F0A0
S1130420DBBDCABDF894EEE8F0E0A8EAB0E0812FA5
S113043001900D928A95E1F7789480916C009091E7
S11304406D00A0916E00B0916F0080329340A105C1
S1130450B105F8F25D9BDDCFF8946091AE00709128
S1130460AF008091B0009091B100A701960115D022
S11304702CB9789410926C0010926D0010926E005A
S113048010926F00C6CF10BC83E389B9599886E8EF
S113049080BD88E08AB9899A0895A1E21A2EAA1B20
S11304A0BB1BFD010DC0AA1FBB1FEE1FFF1FA21720
S11304B0B307E407F50720F0A21BB30BE40BF50B1D
S11304C0661F771F881F991F1A9469F760957095A6
S11304D0809590959B01AC01BD01CF010895052E37
S11304E097FB16F400940FD057FD05D0D6DF07FC18
S11304F002D046F408C050954095309521953F4F61
S11305004F4F5F4F089590958095709561957F4FFB
S11305108F4F9F4F0895B7FF04C003D0821B930BE6
S1130520089509D0A59F900DB49F900DA49F800DB0
S1130530911D11240895A29FB001B39FC001A39FF0
S113054001D0B29F700D811D1124911D0895F8945E
S1050550FFCFD7
S10D055296000A00FA00204E000093
S9030000FC
