S00E0000524F424F54322E737265635E
S113000019C033C032C005C130C08EC02EC02DC04F
S11300102CC02BC02AC029C028C073C126C025C04B
S113002036C023C04CC021C020C01FC01EC01DC08C
S11300301CC01BC011241FBECFEFD2E0DEBFCDBF5A
S113004011E0A0E0B1E0EAE2F5E002C005900D9213
S1130050A430B107D9F721E0A4E0B1E001C01D92BA
S1130060A033B207E1F785D15EC2CACF1092C500B2
S113007083E38093C400E0ECF0E080818D7F808393
S113008086E08093C20088E98093C10008951F929E
S11300900F920FB60F9211248F93809118018F5FE6
S11300A0809318018E3128F081E080931901109219
S11300B018018F910F900FBE0F901F9018951F92EB
S11300C00F920FB60F9211248F939F9380912F015B
S11300D0882321F08091C60086BD1FC0809116013F
S11300E090911701892B71F48091C60090E0909350
S11300F001018093000181E090E0909317018093C7
S113010016010BC08091C60090E090930301809388
S1130110020110921701109216019F918F910F9076
S11301200FBE0F901F9018951F920F920FB60F924B
S113013011244F935F936F937F938F939F93AF9308
S1130140BF934A9B59C08091150181111AC08091B7
S1130150840090918500A0E0B0E080931101909319
S11301601201A0931301B093140181E0809315014F
S11301701092260110922701109228011092290151
S11301803BC08091840090918500A0E0B0E0809312
S11301900D0190930E01A0930F01B09310014091B3
S11301A02601509127016091280170912901BA011B
S11301B055274427840F951FA61FB71F409111018F
S11301C0509112016091130170911401841B950BDD
S11301D0A60BB70B80931A0190931B01A0931C01EB
S11301E0B0931D011092260110922701109228014C
S11301F01092290110921501BF91AF919F918F9197
S11302007F916F915F914F910F900FBE0F901F9050
S113021018951F920F920FB60F9211244F935F936C
S11302206F937F938F939F93AF93BF93189B5CC0FF
S113023080910C0181111AC08091840090918500F5
S1130240A0E0B0E08093080190930901A0930A0113
S1130250B0930B0181E080930C0110922201109263
S1130260230110922401109225013EC08091840044
S113027090918500A0E0B0E0809304019093050183
S1130280A0930601B09307014091220150912301EC
S11302906091240170912501BA0155274427840FE8
S11302A0951FA61FB71F4091080150910901609145
S11302B00A0170910B01841B950BA60BB70B80935D
S11302C01E0190931F01A0932001B093210110926D
S11302D02201109223011092240110922501109200
S11302E00C018BB180588BB9BF91AF919F918F91C5
S11302F07F916F915F914F910F900FBE0F901F9060
S113030018951F920F920FB60F9211248F939F93FB
S1130310AF93BF938091260190912701A09128016A
S1130320B09129010196A11DB11D809326019093DE
S11303302701A0932801B093290180912201909173
S11303402301A0912401B09125010196A11DB11DA5
S11303508093220190932301A0932401B09325015B
S1130360BF91AF919F918F910F900FBE0F901F90EF
S1130370189596D081E080932F0178DE78942FEF42
S113038083ED90E3215080409040E1F700C00000ED
S113039010922F01549A5C98579A84B1866084B95C
S11303A0E1E8F0E0808184608083EBE6F0E0808126
S11303B081608083E8E6F0E0808181608083ADE63F
S11303C0B0E08C9184608C93808184608083399ABE
S11303D0419882E388BD8093B40083D092D0C4EB6B
S11303E0D0E0E0ECF0E0A6ECB0E0F89400911A0163
S11303F010911B0120911C0130911D0140911E019F
S113040050911F0160912001709121017894053869
S113041083E018072105310530F088B58F3F19F0C6
S113042088B58F5F88BD043893E01907210531052D
S113043030F488B5882319F088B5815088BD4538D3
S113044083E058076105710530F088818F3F19F00A
S113045088818F5F8883443893E05907610571056B
S113046030F48881882319F08881815088838081C1
S113047085FFFDCF0C93012F122F232F332780816B
S113048085FFFDCF0C93808185FFFDCF4C93452FD5
S1130490562F672F7727808185FFFDCF4C93A5CFFB
S11304A0569A5E98559A5D98239A2B98539A5B981E
S11304B0389A409A399A419A3A9A429A3B9A439A7C
S11304C084B5836084BD85B5816085BDE0EBF0E0D3
S11304D0808183608083E1EBF0E0808181608083B0
S11304E008955E9884B58F7784BD419A8FE097E232
S11304F00197F1F700C0000084B5806284BD409884
S113050008952B98E0EBF0E080818F778083439A05
S11305108FE097E20197F1F700C0000080818062CC
S10D0520808342980895F894FFCFF9
S107052A3200320065
S9030000FC
